:020000040800F2
:1000000080450020990100081D05000875040008BE
:100010001905000821030008050900080000000078
:1000200000000000000000000000000001010008C6
:1000300059030008000000004501000809070008F6
:10004000B3010008B3010008B3010008B3010008C0
:10005000B3010008B3010008B3010008B3010008B0
:10006000B3010008B3010008B3010008B3010008A0
:10007000B3010008B3010008B3010008B301000890
:10008000B3010008B3010008B3010008B301000880
:10009000B3010008B3010008B3010008B301000870
:1000A000B3010008B3010008B3010008B301000860
:1000B000B3010008B3010008B3010008B301000850
:1000C000B3010008B3010008B3010008B301000840
:1000D000B3010008B3010008B3010008B301000830
:1000E000B3010008B3010008B3010008DFF80CD029
:1000F00000F08CF800480047C10A00088045002045
:10010000224B19680868B0E8F00F80F30988BFF344
:100110006F8F4FF0000080F311884EF00D0E704786
:100120000000000006480068006880F3088862B696
:1001300061B6BFF34F8FBFF36F8F00DF00BF00BF0B
:1001400008ED00E0EFF30980BFF36F8F0F4B1A68E3
:1001500020E9F00F106008B54FF0BF0080F3118860
:10016000BFF34F8FBFF36F8F01F070FB4FF00000B4
:1001700080F31188BDE8084019680868B0E8F00FFE
:1001800080F30988BFF36F8F704700BF1C00002009
:10019000EFF3058070470000064880470648004797
:1001A000FEE7FEE7FEE7FEE7FEE7FEE7FEE7FEE727
:1001B000FEE7FEE711070008ED00000840EA010332
:1001C0009B0703D009E008C9121F08C0042AFAD20D
:1001D00003E011F8013B00F8013B521EF9D27047D1
:1001E00030B50B46014600202022012409E021FA07
:1001F00002F59D4205D303FA02F5491B04FA02F504
:100200002844151EA2F10102F1DC30BD064C074D59
:1002100006E0E06840F0010394E8070098471034D6
:10022000AC42F6D3FFF766FFEC2000080C21000873
:100230007CB5012401F09EF91A4801231A464FF4B7
:100240007A71009018A001F0E5FE1A49086008468E
:10025000006810B118A000F057FB01F093FD0546AF
:10026000002003462A46012100901248006801F050
:1002700007FF1948032100234FF40072CDE9001055
:1002800016A1194801F03EFD0446012C02D117A029
:1002900000F03AFB1D48006801F0FCF901F07CF920
:1002A0007CBD000025030008317365632D746F6702
:1002B000676C65008800002054696D6572312063A9
:1002C00072656174656420737563636573736675C5
:1002D0006C6C792E0D0A00008400002053454E44BA
:1002E0005F5441534B000000150600080D0A43728D
:1002F000656174652053656E645F5461736B207330
:10030000756363657373210D0A000000800000208F
:1003100010B500F0CFF800F037FA00F0ADF810BDDE
:1003200000BFFEE770B505460648C06880F400507F
:100330000449C86001F026FD0446214602A000F0F1
:10034000E3FA70BD001001405469636B56616C752F
:10035000653D25640A00000070472DE9F041024622
:1003600000250026002000230024002791F803C068
:100370000CF00F0591F803C00CF0100CBCF1000F4D
:1003800003D091F802C04CEA050591F800C0BCF119
:10039000000F31D0146800202BE04FF0010C0CFA54
:1003A00000F3B1F800C00CEA03069E4220D183009E
:1003B0004FF00F0C0CFA03F7BC4305FA03FC4CEAB0
:1003C000040491F803C0BCF1280F06D14FF0010CD2
:1003D0000CFA00FCC2F814C00AE091F803C0BCF1AA
:1003E000480F05D14FF0010C0CFA00FCC2F810C008
:1003F000401C0828D1D31460B1F800C0BCF1FF0F35
:1004000034DD546800202EE000F1080C4FF00108A4
:1004100008FA0CF3B1F800C00CEA03069E4221D1A1
:1004200083004FF00F0C0CFA03F7BC4305FA03FCF2
:100430004CEA040491F803C0BCF1280F05D100F187
:10044000080C08FA0CF8C2F8148091F803C0BCF14B
:10045000480F07D100F1080C4FF0010808FA0CF81A
:10046000C2F81080401C0828CED35460BDE8F0814B
:100470000161704700BFFEE708B50121082000F0C8
:100480004FF81020ADF8000048208DF803006946B1
:100490000748FFF762FF4FF48050ADF80000482096
:1004A0008DF8030069460248FFF757FF08BD0000BA
:1004B000000C014008B50121102000F031F84FF484
:1004C0000050ADF8000010208DF8030003208DF8D7
:1004D000020069460F48FFF740FF0420ADF8000016
:1004E00069460C48FFF739FF0820ADF8000069465F
:1004F0000848FFF732FF4FF400510648FFF7B8FFF6
:1005000004210448FFF7B4FF08210248FFF7B0FFB9
:1005100008BD00000010014000BFFEE7704700006A
:1005200029B1064A92690243044B9A6104E0034AE6
:1005300092698243014B9A617047000000100240AB
:1005400030B500210022002400232D4D6D6805F0F8
:100550000C0121B1042905D0082923D105E0294D3A
:10056000056022E0274D05601FE0254D6D6805F40C
:100570007012234D6D6805F48034022505EB92421C
:100580001CB9214D554305600BE01D4D6D6805F408
:1005900000351DB11C4D5543056002E0194D554312
:1005A000056002E0174D056000BF00BF144D6D6887
:1005B00005F0F0010909154D6B5C0568DD404560EB
:1005C0000F4D6D6805F4E061090A104D6B5C4568DC
:1005D000DD4085600A4D6D6805F46051C90A0B4D18
:1005E0006B5C4568DD40C560054D6D6805F44041B4
:1005F000890B074D6B5CC568B5FBF3F5056130BD34
:100600000010024000127A0000093D006C0000203A
:100610007C00002002E0642001F022F8FBE710B526
:1006200000F002F810BD00000CB500200190009011
:100630003348006840F480303149086000BF3048DA
:10064000006800F4003000900198401C0190009870
:1006500018B90198B0F5A06FF1D12948006800F4ED
:10066000003010B10120009001E0002000900098BF
:10067000012843D12348006840F010002149086058
:100680000846006820F0030008600846006840F053
:10069000020008601A4840681949486008464068E6
:1006A00048600846406840F48060486008464068FA
:1006B00020F47C1048600846406840F4E810486028
:1006C0000846006840F08070086000BF0C48006871
:1006D00000F000700028F9D00948406820F00300BD
:1006E000074948600846406840F00200486000BF83
:1006F0000348406800F00C000828F9D10CBD000048
:10070000001002400020024010B501F0E9F810BDD1
:1007100010B51348006840F0010011490860084610
:100720004068104908400E494860084600680E4974
:1007300008400B4908600846006820F480200860E3
:100740000846406820F4FE0048604FF41F008860AF
:10075000FFF765FF4FF000600449086010BD00001E
:10076000001002400000FFF8FFFFF6FE08ED00E079
:1007700021B1828942F40052828104E082894DF6DF
:10078000FF731A408281704700B585B001210420B3
:10079000FFF7C6FE01218803FFF7C2FE4FF4007089
:1007A000ADF8100018208DF8130003208DF812000A
:1007B00004A91348FFF7D1FD4FF48060ADF8100095
:1007C00004208DF8130004A90D48FFF7C6FD4FF46F
:1007D000E13000900020ADF80400ADF80600ADF85F
:1007E0000800ADF80C000C20ADF80A006946054879
:1007F00000F018F801210348FFF7BAFF05B000BD6B
:10080000000801400038014002460020B1F5007F99
:1008100000D100BF13880B400BB1012000E0002085
:10082000704700002DE9F04786B005460E460024CB
:10083000A24600BFA1460027B08900B100BF2F46E5
:100840002C8A4CF6FF700440F08804432C82AC895B
:100850004EF6F3100440B08831890843718908438B
:100860000443AC81AC8A4FF6FF400440B089044396
:10087000AC8201A8FFF764FE1F48874202D1DDF871
:1008800010A001E0DDF80CA0A88900F4004040B100
:100890000AEBCA0000EB0A1031684900B0FBF1F81E
:1008A00007E00AEBCA0000EB0A1031688900B0FBD0
:1008B000F1F86420B8FBF0F004012009642101FB89
:1008C0001089A88900F4004040B1322000EBC90033
:1008D000B0FBF1F000F00700044308E0322000EB29
:1008E00009106421B0FBF1F000F00F0004432C81EB
:1008F00006B0BDE8F087000000380140C1F30802EF
:100900008280704700BFFEE70FB4054B10B503A906
:10091000044A029800F018F810BC5DF814FB0000BF
:100920009D0A00088C00002002E008C8121F08C1C0
:10093000002AFAD170477047002001E001C1121F60
:10094000002AFBD1704700002DE9FF4F89B09B467C
:100950000446002506E025280BD05A460B999047FF
:10096000641C6D1C20780028F5D10DB02846BDE828
:10097000F08F0027B8460122474900E0074314F8EA
:10098000013F203B02FA03F00842F7D120782E28DD
:1009900019D114F8010F47F004072A280ED06FF080
:1009A0002F022078A0F1300109290CD808EB88012A
:1009B00002EB410100EB0108641CF2E70A98641C99
:1009C00050F8048B0A9020780028CED0642808D0F4
:1009D000692806D075281ED05A460B9990476D1C81
:1009E00058E00A994FF00A0901C90A91002802DA71
:1009F00040422D2102E0390504D52B218DF820102D
:100A0000012103E0F90704D02021F7E78A4608AE68
:100A10000DE00021FAE70A994FF00A0901C90A918D
:100A2000F7E74946FFF7DCFB303106F8011D0028E7
:100A3000F7D1ADEB060000F12009780701D44FF0A3
:100A40000108C84502DDA8EB090000E0002080464F
:100A5000002706E008A85A46C05D0B9990476D1C18
:100A60007F1C5745F6DB04E030205A460B9990472F
:100A70006D1CB8F10001A8F10108F5DC05E016F8DD
:100A8000010B5A460B9990476D1CB9F10001A9F171
:100A90000109F4DC641C65E70928010070B504460F
:100AA0000D46E1B20548FFF729FF00BF802103484A
:100AB000FFF7AAFE0028F9D0204670BD003801409B
:100AC0001CB50124FFF724FC0BA0FFF71DFF144801
:100AD000012100234A02CDE9001012A1154801F0BE
:100AE00011F90446012C02D100F070FE02E04FF033
:100AF000FF301CBD00BFFEE74672656552544F5380
:100B00002063726561746573207461736B73206414
:100B1000796E616D6963616C6C79210D0A0000006A
:100B2000800000204150505441534B4352454154A2
:100B300045000000310200082DE9F04105460E464F
:100B40001C4807681C480068001D00F0C9FC50B92B
:100B50001948006890F82C1001208840174909684E
:100B6000814316480160681C38B936B112480168E3
:100B7000091D134800F0F2FC1AE07C190E480068C9
:100B80004460BC4207D20C480168091D0D4800684A
:100B900000F0CAFC0CE008480168091D0A4800681A
:100BA00000F0C2FC09480068844201D20748046092
:100BB000BDE8F081300000201C000020340000203F
:100BC0004441002024000020200000204C00002090
:100BD00010B5044600F0CEFC23480068401C2249B2
:100BE00008602248006840B9204804600846006850
:100BF00001280DD100F0C2F90AE01D48006838B99B
:100C00001A480068C06AE16A884201D8174804603F
:100C100018480068401C1749086094F82C100120FF
:100C2000884015490968084313490860E16A01EBE7
:100C30008101124A02EB8100211D00F08FFC00F0BF
:100C4000ABFC0B48006868B108480068C06AE16AFC
:100C5000884207D24FF0805009490860BFF34F8F98
:100C6000BFF36F8F10BD00002C0000201C0000207F
:100C70003800002048000020340000209040002070
:100C800004ED00E010B500F075FC0C48006890B968
:100C90000B4800F039FC0B4800F036FC08480A49C4
:100CA000086008480949086000220C210A2000F069
:100CB00031FE0249086000F06FFC10BD60000020AA
:100CC000584100206C410020580000205C000020AA
:100CD00070B523E000F0B2FD1348006808B90120A8
:100CE00000E00020054601F021F9BDB900F042FC0A
:100CF0000D48C068C468201D00F0F2FB0B48006876
:100D0000401E0A4908600A480068401E08490860F9
:100D100000F042FC204600F057F800BF044800688D
:100D20000028D7D170BD0000304100202C000020E9
:100D30002800002070B504460D46206C70B1216C6F
:100D4000E0680844E0606168E068884201D3206898
:100D5000E0602846226CE168FFF730FA70BD2DE9AB
:100D6000F04104460F4615464FF00008A66B206C74
:100D700028B37DB93946226CA068FFF71FFA216CB1
:100D8000A0680844A060D4E90110884217D3206805
:100D9000A06014E03946226CE068FFF70FFA216C7E
:100DA000E068401AE0602168E068884203D2216C64
:100DB0006068401AE060022D01D106B1761E701CF9
:100DC000A0634046BDE8F08110B50446206B00F0FA
:100DD000F3FB204600F0F0FB10BD00000146084A7E
:100DE000126812680AB9012200E000220A600A684B
:100DF00022B9034A1268D268106800E000207047E8
:100E00005800002030B54FF48043174800F0070425
:100E10002CB1C01D20F00700134C041B1B1B024605
:100E2000124C22600024114D6C60D018083820F05C
:100E300007000F4C206000240D4D2D686C600C4D98
:100E40002D682C601146441A4C60094C24680C60D3
:100E5000084D4C682C60084D4C682C604FF00044E5
:100E6000064D2C6030BD00009000002004000020E2
:100E70000C000020140000201000002018000020AA
:100E800000BFFFF725FF064800680128F9D94FF099
:100E9000805004490860BFF34F8FBFF36F8FF0E7B6
:100EA0009040002004ED00E02DE9F04106460D469B
:100EB00017469846069C0DB9246000E02760E6635B
:100EC00025640121204600F0DFFDBDE8F0812DE919
:100ED000FF5F80460E469146DDE90E7A109CA9F12F
:100EE0000100216B01EB800B2BF0070B002507E0C5
:100EF000715D04F134004155705D00B902E06D1C74
:100F0000102DF5D300BF002143200155052F00D33C
:100F10000427E762201D00F004FB04F1180000F034
:100F200000FB2461C7F10500A061646200206064D9
:100F300084F8480041465846039A00F0BFFA206002
:100F4000BAF1000F01D0CAF80040BDE8FF9F2DE9BB
:100F5000F04705460E4617469846DDE908945CB111
:100F6000FFF790FE2560A661E761C4F82080C4F811
:100F70002490201D00F0D5FABDE8F08710B50024BC
:100F800007E004EB84010F4A02EB810000F0BCFA99
:100F9000641C052CF5D30C4800F0B6FA0B4800F0A1
:100FA000B3FA0B4800F0B0FA0A4800F0ADFA0A486C
:100FB00000F0AAFA04480949086004480849086092
:100FC00010BD000090400020F440002008410020A7
:100FD0001C4100203041002044410020200000201E
:100FE0002400002010B50146164800E000680368A0
:100FF0008B42FBD30246436813448B4204D14368BF
:101000004C682344436001460A464B681344046815
:10101000A34211D10C4C03682468A34208D04B684A
:101020000468646823444B6003681B680B6005E038
:10103000054B1B680B6001E003680B60884200D021
:10104000016010BD040000200C0000202DE9F041DB
:1010500004460D4616461F464FF0000865602461A1
:10106000B5420CD8F01BA169884202D34FF00108A9
:1010700011E0211D0948006800F056FA0BE0BE425D
:1010800004D2BD4202D34FF0010804E0211D044800
:10109000006800F049FA4046BDE8F0815C0000209D
:1010A0005800002070B5054600F064FAA86B08B936
:1010B000012400E0002400F06FFA204670BD70B5F6
:1010C000054600F057FAA86BE96B884201D101246C
:1010D00000E0002400F060FA204670BDF8B5054637
:1010E0000E4610480068C068C468201D00F0F8F97A
:1010F000E069012811D1A06941192B4632462046EA
:10110000FFF7A4FF48B1002003462A46014600909D
:10111000204600F0B5FF074600BF2046616A8847B9
:10112000F8BD00005800002070B586B04DE003986F
:1011300000284ADB059C606908B9012000E0002016
:1011400010B9201D00F0CCF902A800F09FF8054668
:1011500003980A2837D2DFE800F00905072527326F
:101160000608262800BF00BF00BF00BF0498A26980
:10117000811803462A462046FFF768FF88B12046BB
:10118000616A8847E06901280BD10020009004982B
:10119000A169421800231946204600F071FF064657
:1011A00000BF11E000BF0FE000BF0498A061A0697C
:1011B00041192B462A462046FFF748FF04E0204607
:1011C00000F0FAF900E000BF00BF00231A4603A9AF
:1011D0000348006800F0BAFB0028A8D106B070BD33
:1011E00060000020F8B505460C4600F027FB684675
:1011F00000F04CF80646009820BB44B9B54206D82A
:1012000000F094FE31462846FFF768FF1CE03CB131
:101210000E480068006808B9012000E0002004467C
:10122000A91B22460A48006800F0F4F900F07EFE8F
:1012300050B94FF0805007490860BFF34F8FBFF39C
:101240006F8F01E000F072FEF8BD00005C0000202E
:101250006000002004ED00E00A490968096809B946
:10126000012100E0002121B14FF0FF31064A116059
:1012700006E004490968C968C868034A4168116002
:1012800070470000200000204C00002070B504468C
:1012900000F078FD054607480068854204D200F05A
:1012A0000BF80120206001E000202060014805606B
:1012B000284670BD680000202DE9F84326E01D484F
:1012C0000068C06805681B480068C068C468201DC5
:1012D00000F006F92046616A8847E069012815D1C7
:1012E000A0694619AE4207D966602461211D1148E4
:1012F000006800F019F909E0002003462A4601467B
:101300000090204600F0BCFE804600BF09480068FF
:10131000006808B9012000E000200028CFD005486F
:101320000768054800680349086003480760BDE88E
:10133000F8830000580000205C00002000BFBF20A0
:1013400080F31188BFF34F8FBFF36F8F00BF00BFD3
:10135000FEE708B500BF6846FFF740FD044620469B
:101360000099FFF73FFFFFF7DFFEF4E770B5044693
:1013700000F000F994F9455010E0606A08B90120C6
:1013800000E0002038B904F1240000F08FFD18B10E
:1013900000F0E6F900E003E0681E45B2002DECDC49
:1013A00000BFFF2084F8450000F0F6F800F0E2F8F6
:1013B00094F9445010E0206908B9012000E00020B1
:1013C00048B904F1100000F071FD08B100F0C8F94F
:1013D000681E45B200E001E0002DECDC00BFFF20FC
:1013E00084F8440000F0D8F870BD00002DE9F04109
:1013F00005464FF0000800F021FA2B48006808B9B4
:10140000FFF700FD294800682840002847D145B172
:10141000083505F0070020B105F00700C0F108000D
:101420000544002D3BD022480068854237D8214E24
:101430003046046801E0264624686068A84202D26B
:1014400020680028F7D118480068844227D0306807
:1014500000F10808206830606068401B102807D938
:1014600067196068401B786065603846FFF7BAFD11
:101470000F4960680968081A0D4908600846006845
:101480000D490968884203D2094800680A49086082
:10149000064960680968084360600020206000F029
:1014A00045FD4046BDE8F0810C00002018000020FA
:1014B000100000200400002014000020001F4FF046
:1014C00080730360001F21F001030360001F034BC2
:1014D0000360143802602038704700003D13000894
:1014E00001460A69D1E901309860D1E901035860E9
:1014F0005068884201D188685060002008611068F7
:10150000401E10601068704700F1080141604FF004
:10151000FF31816000F10801C160016100210160BB
:10152000704700210161704710B502460B685C1CD2
:101530000CB9106907E002F1080000E04068446857
:1015400024689C42FAD944684C604C68A160886069
:1015500041600A611468641C146010BD42684A60EE
:1015600093688B60936859609160086103685B1CA5
:101570000360704700BFBF2080F31188BFF34F8F17
:10158000BFF36F8F00BF03480068401C014908602B
:10159000704700000000002006480068401E054912
:1015A00008600846006820B9002080F3118800BF59
:1015B00000BF70470000002070B506463546D6B122
:1015C000083D2C460C4960680968084098B12068BD
:1015D00088B90949606809688843606000F02EF99D
:1015E0000649606809680844044908602046FFF716
:1015F000F9FC00F09BFC70BD1800002010000020DA
:1016000003484FF0E021486107200861704700005F
:101610003F1901002DE9F04105460E4617462C46BC
:10162000FFF7A8FF94F94400401C10B9002084F88B
:10163000440094F94500401C10B9002084F845008E
:10164000FFF7AAFFA06B28B93A46314604F12400FF
:1016500000F09CF82046FFF789FEBDE8F08100000D
:1016600070B50446002544B100F0E8F8002120469A
:10167000FFF762FA00F05AFC05463DB94FF0805082
:1016800003490860BFF34F8FBFF36F8F70BD000039
:1016900004ED00E070B50546FFF76CFF15B927486B
:1016A000006800E028460446201DFFF719FF78B9BE
:1016B000E06A00EB8000224951F8200040B994F81C
:1016C0002C10012088401F49096881431D48016092
:1016D000A06A18B104F11800FFF702FF1A48006869
:1016E000401C1949086015480068844209D1211D31
:1016F0001648FFF733FF16480068401C144908607D
:1017000009E014480068401E124908602046FFF7AF
:101710005BFBFFF7A1FDFFF73FFF0F48006858B1E3
:1017200006480068844207D14FF080500B4908609A
:10173000BFF34F8FBFF36F8F70BD00001C00002000
:10174000904000203400002048000020304100205C
:10175000280000202C0000203800002004ED00E0CC
:1017600001200149086070474000002070B505461F
:101770000C460548016818312846FFF7D5FE0121BF
:101780002046FFF7D9F970BD1C00002070B5064651
:101790000D4614460648016818313046FFF7DEFE54
:1017A0000CB14FF0FF3521462846FFF7C5F970BD53
:1017B0001C00002003490968016003490968416071
:1017C0007047000044000020300000201CB5144881
:1017D00000210B468022CDE9001012A1134800F031
:1017E00091FA0446012C02D100F02CFC0446012C95
:1017F00014D100BFBF2080F31188BFF34F8FBFF318
:101800006F8F00BF4FF0FF30094908600120094980
:10181000086000200849086000F048F81CBD00007E
:101820005000002049444C4500000000810E000893
:101830004C000020380000203000002002480068E2
:10184000401C01490860704754000020124800689D
:1018500018B10120114908601DE000200F490860FF
:101860000F480068B0FA80F0C0F11F0101EB81025F
:101870000C4B03EB820042685268426000F10802A0
:101880004368934202D14268526842604268D2681B
:10189000054B1A6000BF7047540000204000002034
:1018A00034000020904000201C00002010B50A48A1
:1018B000006840F47F00084908600846006840F06E
:1018C0007F400860FFF79CFE002004490860FEF797
:1018D00029FC002010BD000020ED00E000000020E9
:1018E00010B500BFBF2080F31188BFF34F8FBFF347
:1018F0006F8F00BF00F04CFA18B14FF080500449D0
:10190000086000BF002080F3118800BF10BD0000F8
:1019100004ED00E02DE9F84307460D4690460DB969
:10192000002601E007FB05F606F14800FFF75EFD23
:10193000044644B104F1480943464A46294638461C
:101940000094FFF7B1FA2046BDE8F8832DE9FF4780
:1019500082B0054689461E464FF0000A2C4600BF5D
:10196000FFF708FED4F83880B8F1000F36D0E768EA
:1019700049462046FFF7DEF9B6B9A8F10100A06399
:10198000206908B9012000E0002008BB04F1100024
:1019900000F08CFAE0B14FF080503A490860BFF394
:1019A0004F8FBFF36F8F13E0E760606A08B90120C3
:1019B00000E0002060B904F1240000F077FA38B1AB
:1019C0004FF080502F490860BFF34F8FBFF36F8FE8
:1019D000FFF7E2FD012006B0BDE8F087049818B9D2
:1019E000FFF7DAFD0020F6E7BAF1000F04D16846F0
:1019F000FFF7E0FE4FF0010AFFF7CEFDFFF71EFFF5
:101A0000FFF7B8FD94F94400401C10B9002084F899
:101A1000440094F94500401C10B9002084F84500AA
:101A2000FFF7BAFD04A9684600F03EF9F0B9204678
:101A3000FFF738FBA0B104F124000499FFF796FEEC
:101A40002046FFF793FC00F071FA002888D14FF090
:101A500080500C490860BFF34F8FBFF36F8F7FE753
:101A60002046FFF783FC00F061FA79E72046FFF794
:101A70007DFC00F05BFA2046FFF714FB0028EED057
:101A80000020A8E704ED00E070B505460E462C46A0
:101A9000FFF770FDD4E90F12206801FB02006060BF
:101AA0000020A0632068A060E06B401E226C2168CB
:101AB00000FB0210E060FF2084F8440084F8450039
:101AC0009EB9206908B9012000E00020A8B904F1FE
:101AD000100000F0EBF980B14FF080500949086028
:101AE000BFF34F8FBFF36F8F07E004F11000FFF7D4
:101AF0000BFD04F12400FFF707FDFFF74DFD01206A
:101B000070BD000004ED00E02DE9FF4383B00746FF
:101B100088461D464FF000093C4600BFFFF72AFDEE
:101B2000A06BE16B884201D3022D28D12A464146A1
:101B30002046FFF714F90646606A08B9012000E064
:101B4000002068B904F1240000F0B0F988B14FF02A
:101B5000805032490860BFF34F8FBFF36F8F08E0AA
:101B60003EB14FF080502D490860BFF34F8FBFF357
:101B70006F8FFFF711FD012007B0BDE8F0830598D6
:101B800018B9FFF709FD0020F6E7B9F1000F04D1FD
:101B900001A8FFF70FFE4FF00109FFF7FDFCFFF76B
:101BA0004DFEFFF7E7FC94F94400401C10B90020FB
:101BB00084F8440094F94500401C10B9002084F8D2
:101BC0004500FFF7E9FC05A901A800F06DF8F0B9A0
:101BD0002046FFF774FAA0B104F110000599FFF751
:101BE000C5FD2046FFF7C2FB00F0A0F9002895D103
:101BF0004FF0805009490860BFF34F8FBFF36F8FDC
:101C00008CE72046FFF7B2FB00F090F986E720460C
:101C1000FFF7ACFB00F08AF90020ADE704ED00E02F
:101C20002DE9F05F05468A4616461F462C4600BF42
:101C3000BF21EFF3118081F31188BFF34F8FBFF302
:101C40006F8F00BF8146A06BE16B884201D3022FEA
:101C500020D194F945B03A4651462046FFF77FF827
:101C60000BF1010070B9606A08B9012000E00020A2
:101C700068B904F1240000F019F940B13EB1012027
:101C8000306004E00BF1010040B284F845004FF0F1
:101C9000010801E04FF0000800BF89F3118800BF80
:101CA0004046BDE8F09F000070B504460D46FFF7C2
:101CB00061FC124802682868401C08B9002619E037
:101CC0000F4920680968884204D06068904201D8B2
:101CD00001260FE06068101A2968884209D2286836
:101CE0006168511A401A28602046FFF763FD0026FC
:101CF00000E00126FFF750FC304670BD30000020A8
:101D0000440000202DE9FF4F85B0804689461746E4
:101D1000DDE912ABB800FFF769FB064656B14C206F
:101D2000FFF764FB04460CB1266304E03046FFF77E
:101D300043FC00E000247CB10020CDE900ABCDE9FC
:101D400002403A4649464046089BFFF7C0F8204605
:101D5000FEF73EFF012501E04FF0FF35284609B0B0
:101D6000BDE8F08F0549096809B9012005E004497B
:101D7000096809B9022000E00020704738000020FF
:101D8000540000200149086870470000300000201E
:101D90002DE9F04100273A480068002863D139480E
:101DA0000068451C374805608DB93748D0F8008079
:101DB00036480068344908603448C0F80080344828
:101DC0000068401C32490860FFF746FA00BF3148FE
:101DD000006885423BD300BF2B480068006808B903
:101DE000012000E0002020B14FF0FF3029490860B9
:101DF0002CE025480068C068C4686668B54202D215
:101E00002448066022E0201DFFF76AFBA06A18B193
:101E100004F11800FFF764FB94F82C1001208840AF
:101E20001D49096808431C490860E16A01EB81010A
:101E30001A4A02EB8100211DFFF790FB1849E06A66
:101E40000968C96A8842C7D30127C5E700BF14489B
:101E50000068C06A00EB8000104951F8200001289A
:101E600000D9012704E00F480068401C0D490860B4
:101E70000D48006800B101273846BDE8F081000038
:101E8000540000203000002020000020240000200A
:101E9000440000204C00002034000020904000202E
:101EA0001C0000203C0000204000002070B50646C9
:101EB000F068C46804F11800FFF712FB15480068C9
:101EC000A8B9201DFFF70CFB94F82C1001208840C6
:101ED00011490968084310490860E16A01EB810172
:101EE0000E4A02EB8100211DFFF738FB04E004F1EC
:101EF00018010B48FFF732FB0A49E06A0968C96A12
:101F0000884204D9012501200749086000E0002526
:101F1000284670BD5400002034000020904000206E
:101F20001C4100201C0000204000002070B500244F
:101F30000026FFF71FFB2E480068401E2C49086052
:101F40000846006800284FD12A48006800284BD076
:101F500024E02948C068C46804F11800FFF7C0FAFB
:101F6000201DFFF7BDFA94F82C100120884023496A
:101F70000968084321490860E16A01EB8101204AB0
:101F800002EB8100211DFFF7E9FA1E49E06A0968AA
:101F9000C96A884202D301201B49086016480068BC
:101FA00008B9012000E000200028D2D00CB1FFF7D2
:101FB00053F91648056865B100BFFFF7E9FE10B197
:101FC0000120114908606D1E002DF6D100200F4937
:101FD00008600D48006838B1012630070C490860D8
:101FE000BFF34F8FBFF36F8FFFF7D6FA304670BD48
:101FF000540000202C0000201C4100203400002050
:10200000904000201C000020400000203C000020E8
:1020100004ED00E02DE9FC4705460E4617469846BC
:10202000DDF828902820FFF7E1F904463CB143464B
:102030003A4631462846CDE90094FEF788FF20460F
:10204000BDE8FC871CB50024FEF71CFE07480068AD
:1020500050B10748042100238A01CDE9001005A1F1
:102060000648FFF74FFE044620461CBD60000020D6
:1020700064000020546D72205376630053130008EF
:102080002DE9FE4305460C4616461F46DDF828801E
:102090004FF000091448006810B3009401960295AF
:1020A000062C15DAFFF75EFE022808D1002342460F
:1020B00069460D480068FFF727FD814610E00023C0
:1020C0001A46694608480068FFF71EFD814607E08A
:1020D00000233A46694604480068FFF7A1FD81469F
:1020E0004846BDE8FE830000600000200C21000887
:1020F0000000002090000000280900089C21000832
:1021000090000020F044000038090008AAAAAAAAFA
:1021100000000000000000000000000000000000BF
:1021200000000000000000000000000000000000AF
:10213000000000000000000000000000000000009F
:10214000000000000000000000000000000000008F
:10215000000000000000000000000000000000007F
:10216000000000000000000000000000000000006F
:102170000000000000000000000000000102030455
:102180000102030406070809020406080000000013
:0C21900000000000000000000000000043
:04000005080000ED02
:00000001FF
